S01500004E61656C6465735F526F626F742E73726563EE
S11300000C9434000C9472000C949C000C944900E1
S11300100C9449000C9449000C9449000C94490038
S11300200C9449000C9449000C9449000C94490028
S11300300C9449000C9449000C9449000C94490018
S11300400C9449000C9449000C9449000C94490008
S11300500C9449000C9449000C9449000C944900F8
S11300600C9449000C94490011241FBECFEFD4E036
S1130070DEBFCDBF11E0A0E0B1E0E0E2F4E002C0F9
S113008005900D92A430B107D9F70E94FF000C949B
S11300900E020C94000008958AB18B7F8AB98AB14C
S11300A0877F8AB9E9E6F0E080818260808380817D
S11300B08E7F808380818860808380818B7F808332
S11300C08DB381608DBB8DB382608DBB78940895B0
S11300D0909303018093020108959093010180930A
S11300E0000108951F920F920FB60F9211242F93BF
S11300F03F934F935F936F937F938F939F93AF93AC
S1130100BF93EF93FF93E0910201F09103010995EE
S11301108CB381608CBBFF91EF91BF91AF919F91A4
S11301208F917F916F915F914F913F912F910F909C
S11301300FBE0F901F9018951F920F920FB60F923B
S113014011242F933F934F935F936F937F938F93D8
S11301509F93AF93BF93EF93FF93E0910001F091CE
S1130160010109958CB382608CBBFF91EF91BF9123
S1130170AF919F918F917F916F915F914F913F913B
S11301802F910F900FBE0F901F9018958BB18F7702
S11301908BB985B18E7F85B985B18D7F85B985B1E0
S11301A08B7F85B98AB180688AB984B1816084B94A
S11301B084B1826084B984B1846084B9089588B1BB
S11301C0877F88B988B18B7F88B988B18D7F88B9DA
S11301D088B18E7F88B987B1886087B987B1846018
S11301E087B987B1826087B987B1816087B908957B
S11301F00E94C6000E94DF000895089508950E9499
S113020066018DEF90E00E9468008EEF90E00E94FE
S11302106D002FEF83ED90E3215080409040E1F793
S113022000C00000F6CF8AB18F7B8AB984B58160A3
S113023084BD84B5826084BD85B5877F85BD84B562
S11302408F7B84BD84B5806884BD81E087BD85B51E
S1130250816085BD85B58D7F85BD85B58B7F85BD69
S113026080E090E0089584B1886084B984B58160A9
S113027084BD84B5826084BD85B5877F85BDA0EBD0
S1130280B0E08C9181608C938C9182608C93E1EBD3
S1130290F0E08081877F80838C918F7B8C938C911D
S11302A080688C9381E08093B30080818160808337
S11302B080818D7F808380818B7F808380E090E04C
S11302C008950E9413010E94330108950F9301E0E1
S11302D02EE448E060E875E280E090E00E94780156
S11302E00E944C000E94F8000E9461010F91089541
S11302F0CF92DF92EF92FF920F936B017C013EE667
S1130300C31AD108E108F10833E9C31631ECD30666
S113031031E0E306F10408F059C0453008F456C052
S1130320493008F053C030E23093C00038E13093D4
S1130330C100002329F0E1ECF0E030813068308323
S11303404550440F4093C200253431F4E2ECF0E010
S113035020812062208307C02F3429F4E2ECF0E0EE
S11303602081206320836B017C0120E8C20E24E8F5
S1130370D21E2EE1E21EF11CCC0CDD1CEE1CFF1C77
S1130380CC0CDD1CEE1CFF1CCC0CDD1CEE1CFF1C7D
S1130390DC01CB01880F991FAA1FBB1F880F991F6F
S11303A0AA1FBB1F9C01AD01220F331F441F551F01
S11303B0220F331F441F551FC701B6010E94EC01D1
S11303C0215031093093C5002093C4000F91FF9050
S11303D0EF90DF90CF900895A1E21A2EAA1BBB1BC9
S11303E0FD010DC0AA1FBB1FEE1FFF1FA217B307FD
S11303F0E407F50720F0A21BB30BE40BF50B661F13
S1130400771F881F991F1A9469F7609570958095D6
S113041090959B01AC01BD01CF010895F894FFCFE5
S10704204B004B003E
S9030000FC
